{
  "contractName": "StudentStorage",
  "abi": [
    {
      "inputs": [],
      "name": "name",
      "outputs": [
        {
          "internalType": "string",
          "name": "",
          "type": "string"
        }
      ],
      "stateMutability": "view",
      "type": "function",
      "constant": true
    },
    {
      "inputs": [
        {
          "internalType": "string",
          "name": "_name",
          "type": "string"
        },
        {
          "internalType": "uint256",
          "name": "_age",
          "type": "uint256"
        }
      ],
      "name": "setData",
      "outputs": [],
      "stateMutability": "nonpayable",
      "type": "function"
    },
    {
      "inputs": [],
      "name": "getData",
      "outputs": [
        {
          "internalType": "string",
          "name": "",
          "type": "string"
        },
        {
          "internalType": "uint256",
          "name": "",
          "type": "uint256"
        }
      ],
      "stateMutability": "view",
      "type": "function",
      "constant": true
    }
  ],
  "bytecode": "0x608060405234801561001057600080fd5b506107e8806100206000396000f3fe608060405234801561001057600080fd5b506004361061005e576000357c01000000000000000000000000000000000000000000000000000000009004806306fdde03146100635780633bc5de3014610081578063af22068e146100a0575b600080fd5b61006b6100bc565b6040516100789190610292565b60405180910390f35b61008961014a565b6040516100979291906102cd565b60405180910390f35b6100ba60048036038101906100b59190610472565b6101e7565b005b600180546100c9906104fd565b80601f01602080910402602001604051908101604052809291908181526020018280546100f5906104fd565b80156101425780601f1061011757610100808354040283529160200191610142565b820191906000526020600020905b81548152906001019060200180831161012557829003601f168201915b505050505081565b60606000600160005481805461015f906104fd565b80601f016020809104026020016040519081016040528092919081815260200182805461018b906104fd565b80156101d85780601f106101ad576101008083540402835291602001916101d8565b820191906000526020600020905b8154815290600101906020018083116101bb57829003601f168201915b50505050509150915091509091565b81600190816101f691906106e0565b50806000819055505050565b600081519050919050565b600082825260208201905092915050565b60005b8381101561023c578082015181840152602081019050610221565b60008484015250505050565b6000601f19601f8301169050919050565b600061026482610202565b61026e818561020d565b935061027e81856020860161021e565b61028781610248565b840191505092915050565b600060208201905081810360008301526102ac8184610259565b905092915050565b6000819050919050565b6102c7816102b4565b82525050565b600060408201905081810360008301526102e78185610259565b90506102f660208301846102be565b9392505050565b6000604051905090565b600080fd5b600080fd5b600080fd5b600080fd5b7f4e487b7100000000000000000000000000000000000000000000000000000000600052604160045260246000fd5b61035382610248565b810181811067ffffffffffffffff821117156103725761037161031b565b5b80604052505050565b60006103856102fd565b9050610391828261034a565b919050565b600067ffffffffffffffff8211156103b1576103b061031b565b5b6103ba82610248565b9050602081019050919050565b82818337600083830152505050565b60006103e96103e484610396565b61037b565b90508281526020810184848401111561040557610404610316565b5b6104108482856103c7565b509392505050565b600082601f83011261042d5761042c610311565b5b813561043d8482602086016103d6565b91505092915050565b61044f816102b4565b811461045a57600080fd5b50565b60008135905061046c81610446565b92915050565b6000806040838503121561048957610488610307565b5b600083013567ffffffffffffffff8111156104a7576104a661030c565b5b6104b385828601610418565b92505060206104c48582860161045d565b9150509250929050565b7f4e487b7100000000000000000000000000000000000000000000000000000000600052602260045260246000fd5b6000600282049050600182168061051557607f821691505b602082108103610528576105276104ce565b5b50919050565b60008190508160005260206000209050919050565b60006020601f8301049050919050565b60008160020a8302905092915050565b6000600883026105937fffffffffffffffffffffffffffffffffffffffffffffffffffffffffffffffff82610553565b61059d8683610553565b95508019841693508086168417925050509392505050565b6000819050919050565b60006105da6105d56105d0846102b4565b6105b5565b6102b4565b9050919050565b6000819050919050565b6105f4836105bf565b610608610600826105e1565b848454610563565b825550505050565b600090565b61061d610610565b6106288184846105eb565b505050565b5b8181101561064c57610641600082610615565b60018101905061062e565b5050565b601f821115610691576106628161052e565b61066b84610543565b8101602085101561067a578190505b61068e61068685610543565b83018261062d565b50505b505050565b60008160020a8304905092915050565b60006106b760001984600802610696565b1980831691505092915050565b60006106d083836106a6565b9150826002028217905092915050565b6106e982610202565b67ffffffffffffffff8111156107025761070161031b565b5b61070c82546104fd565b610717828285610650565b600060209050601f83116001811461074a5760008415610738578287015190505b61074285826106c4565b8655506107aa565b601f1984166107588661052e565b60005b828110156107805784890151825560018201915060208501945060208101905061075b565b8683101561079d5784890151610799601f8916826106a6565b8355505b6001600288020188555050505b50505050505056fea2646970667358221220d115ed97cf8bd386c74345cb6208388dd65c160907cd76835ceef2fb31ddb47364736f6c63430008140033",
  "immutableReferences": {},
  "source": "// SPDX-License-Identifier: GPL-3.0\r\npragma solidity >=0.4.16 <0.9.0;\r\n\r\n// \r\ncontract StudentStorage {\r\n    // username, age\r\n    uint age; // uint8 uint16 uint32 (uint uint256)\r\n    string public name;\r\n\r\n    function setData (string memory _name, uint _age) public {\r\n        name = _name;\r\n        age = _age;\r\n    }\r\n\r\n    // returns \r\n    function getData () public view returns (string memory, uint) {\r\n        return (name, age);\r\n    }\r\n}",
  "sourcePath": "E:\\KerwinLiu\\web3-mb\\kerwinContracts\\contracts\\StudentStorage.sol",
  "compiler": {
    "name": "solc",
    "version": "0.8.20+commit.a1b79de6.Emscripten.clang"
  },
  "schemaVersion": "3.4.14",
  "updatedAt": "2023-05-24T14:54:04.778Z",
  "networkType": "ethereum",
  "devdoc": {
    "kind": "dev",
    "methods": {},
    "version": 1
  },
  "userdoc": {
    "kind": "user",
    "methods": {},
    "version": 1
  }
}