{
  "contractName": "StudentStorage",
  "abi": [
    {
      "inputs": [
        {
          "internalType": "string",
          "name": "_name",
          "type": "string"
        },
        {
          "internalType": "uint256",
          "name": "_age",
          "type": "uint256"
        }
      ],
      "name": "setData",
      "outputs": [],
      "stateMutability": "nonpayable",
      "type": "function"
    },
    {
      "inputs": [],
      "name": "getData",
      "outputs": [
        {
          "internalType": "string",
          "name": "",
          "type": "string"
        },
        {
          "internalType": "uint256",
          "name": "",
          "type": "uint256"
        }
      ],
      "stateMutability": "view",
      "type": "function",
      "constant": true
    }
  ],
  "bytecode": "0x608060405234801561001057600080fd5b5061070f806100206000396000f3fe608060405234801561001057600080fd5b5060043610610053576000357c0100000000000000000000000000000000000000000000000000000000900480633bc5de3014610058578063af22068e14610077575b600080fd5b610060610093565b60405161006e9291906101f4565b60405180910390f35b610091600480360381019061008c9190610399565b610130565b005b6060600060016000548180546100a890610424565b80601f01602080910402602001604051908101604052809291908181526020018280546100d490610424565b80156101215780601f106100f657610100808354040283529160200191610121565b820191906000526020600020905b81548152906001019060200180831161010457829003601f168201915b50505050509150915091509091565b816001908161013f9190610607565b50806000819055505050565b600081519050919050565b600082825260208201905092915050565b60005b8381101561018557808201518184015260208101905061016a565b60008484015250505050565b6000601f19601f8301169050919050565b60006101ad8261014b565b6101b78185610156565b93506101c7818560208601610167565b6101d081610191565b840191505092915050565b6000819050919050565b6101ee816101db565b82525050565b6000604082019050818103600083015261020e81856101a2565b905061021d60208301846101e5565b9392505050565b6000604051905090565b600080fd5b600080fd5b600080fd5b600080fd5b7f4e487b7100000000000000000000000000000000000000000000000000000000600052604160045260246000fd5b61027a82610191565b810181811067ffffffffffffffff8211171561029957610298610242565b5b80604052505050565b60006102ac610224565b90506102b88282610271565b919050565b600067ffffffffffffffff8211156102d8576102d7610242565b5b6102e182610191565b9050602081019050919050565b82818337600083830152505050565b600061031061030b846102bd565b6102a2565b90508281526020810184848401111561032c5761032b61023d565b5b6103378482856102ee565b509392505050565b600082601f83011261035457610353610238565b5b81356103648482602086016102fd565b91505092915050565b610376816101db565b811461038157600080fd5b50565b6000813590506103938161036d565b92915050565b600080604083850312156103b0576103af61022e565b5b600083013567ffffffffffffffff8111156103ce576103cd610233565b5b6103da8582860161033f565b92505060206103eb85828601610384565b9150509250929050565b7f4e487b7100000000000000000000000000000000000000000000000000000000600052602260045260246000fd5b6000600282049050600182168061043c57607f821691505b60208210810361044f5761044e6103f5565b5b50919050565b60008190508160005260206000209050919050565b60006020601f8301049050919050565b60008160020a8302905092915050565b6000600883026104ba7fffffffffffffffffffffffffffffffffffffffffffffffffffffffffffffffff8261047a565b6104c4868361047a565b95508019841693508086168417925050509392505050565b6000819050919050565b60006105016104fc6104f7846101db565b6104dc565b6101db565b9050919050565b6000819050919050565b61051b836104e6565b61052f61052782610508565b84845461048a565b825550505050565b600090565b610544610537565b61054f818484610512565b505050565b5b818110156105735761056860008261053c565b600181019050610555565b5050565b601f8211156105b85761058981610455565b6105928461046a565b810160208510156105a1578190505b6105b56105ad8561046a565b830182610554565b50505b505050565b60008160020a8304905092915050565b60006105de600019846008026105bd565b1980831691505092915050565b60006105f783836105cd565b9150826002028217905092915050565b6106108261014b565b67ffffffffffffffff81111561062957610628610242565b5b6106338254610424565b61063e828285610577565b600060209050601f831160018114610671576000841561065f578287015190505b61066985826105eb565b8655506106d1565b601f19841661067f86610455565b60005b828110156106a757848901518255600182019150602085019450602081019050610682565b868310156106c457848901516106c0601f8916826105cd565b8355505b6001600288020188555050505b50505050505056fea26469706673582212201d1e6b8cb9a0e8056fac02ed855b5f2c4154fc89a69bae855a4c1a347b15705464736f6c63430008140033",
  "immutableReferences": {},
  "source": "// SPDX-License-Identifier: GPL-3.0\r\npragma solidity >=0.4.16 <0.9.0;\r\n\r\n// \r\ncontract StudentStorage {\r\n    // username, age\r\n    uint age; // uint8 uint16 uint32 (uint uint256)\r\n    string name;\r\n\r\n    function setData (string memory _name, uint _age) public {\r\n        name = _name;\r\n        age = _age;\r\n    }\r\n\r\n    // returns \r\n    function getData () public view returns (string memory, uint) {\r\n        return (name, age);\r\n    }\r\n}",
  "sourcePath": "E:\\KerwinLiu\\web3-mb\\kerwinContracts\\contracts\\StudentStorage.sol",
  "compiler": {
    "name": "solc",
    "version": "0.8.20+commit.a1b79de6.Emscripten.clang"
  },
  "schemaVersion": "3.4.14",
  "updatedAt": "2023-05-23T14:56:57.102Z",
  "networkType": "ethereum",
  "devdoc": {
    "kind": "dev",
    "methods": {},
    "version": 1
  },
  "userdoc": {
    "kind": "user",
    "methods": {},
    "version": 1
  }
}