{
  "contractName": "StudentListStorage",
  "abi": [
    {
      "inputs": [
        {
          "internalType": "uint256",
          "name": "",
          "type": "uint256"
        }
      ],
      "name": "StudentList",
      "outputs": [
        {
          "internalType": "uint256",
          "name": "id",
          "type": "uint256"
        },
        {
          "internalType": "string",
          "name": "name",
          "type": "string"
        },
        {
          "internalType": "uint256",
          "name": "age",
          "type": "uint256"
        }
      ],
      "stateMutability": "view",
      "type": "function"
    },
    {
      "inputs": [
        {
          "internalType": "string",
          "name": "_name",
          "type": "string"
        },
        {
          "internalType": "uint256",
          "name": "_age",
          "type": "uint256"
        }
      ],
      "name": "addList",
      "outputs": [
        {
          "internalType": "uint256",
          "name": "",
          "type": "uint256"
        }
      ],
      "stateMutability": "nonpayable",
      "type": "function"
    },
    {
      "inputs": [],
      "name": "getList",
      "outputs": [
        {
          "components": [
            {
              "internalType": "uint256",
              "name": "id",
              "type": "uint256"
            },
            {
              "internalType": "string",
              "name": "name",
              "type": "string"
            },
            {
              "internalType": "uint256",
              "name": "age",
              "type": "uint256"
            }
          ],
          "internalType": "struct StudentListStorage.Student[]",
          "name": "",
          "type": "tuple[]"
        }
      ],
      "stateMutability": "view",
      "type": "function"
    }
  ],
  "bytecode": "0x608060405234801561001057600080fd5b50610b4c806100206000396000f3fe608060405234801561001057600080fd5b506004361061005e576000357c0100000000000000000000000000000000000000000000000000000000900480636b29d35f14610063578063942b765a1461009357806395bbc64e146100b1575b600080fd5b61007d600480360381019061007891906104d2565b6100e3565b60405161008a919061053d565b60405180910390f35b61009b61017b565b6040516100a891906106f8565b60405180910390f35b6100cb60048036038101906100c6919061071a565b610280565b6040516100da93929190610791565b60405180910390f35b60008060016000805490506100f891906107fe565b90506000604051806060016040528083815260200186815260200185815250908060018154018082558091505060019003906000526020600020906003020160009091909190915060008201518160000155602082015181600101908161015f9190610a44565b5060408201518160020155505060008054905091505092915050565b60606000805480602002602001604051908101604052809291908181526020016000905b828210156102775783829060005260206000209060030201604051806060016040529081600082015481526020016001820180546101dc90610861565b80601f016020809104026020016040519081016040528092919081815260200182805461020890610861565b80156102555780601f1061022a57610100808354040283529160200191610255565b820191906000526020600020905b81548152906001019060200180831161023857829003601f168201915b505050505081526020016002820154815250508152602001906001019061019f565b50505050905090565b6000818154811061029057600080fd5b90600052602060002090600302016000915090508060000154908060010180546102b990610861565b80601f01602080910402602001604051908101604052809291908181526020018280546102e590610861565b80156103325780601f1061030757610100808354040283529160200191610332565b820191906000526020600020905b81548152906001019060200180831161031557829003601f168201915b5050505050908060020154905083565b6000604051905090565b600080fd5b600080fd5b600080fd5b600080fd5b6000601f19601f8301169050919050565b7f4e487b7100000000000000000000000000000000000000000000000000000000600052604160045260246000fd5b6103a982610360565b810181811067ffffffffffffffff821117156103c8576103c7610371565b5b80604052505050565b60006103db610342565b90506103e782826103a0565b919050565b600067ffffffffffffffff82111561040757610406610371565b5b61041082610360565b9050602081019050919050565b82818337600083830152505050565b600061043f61043a846103ec565b6103d1565b90508281526020810184848401111561045b5761045a61035b565b5b61046684828561041d565b509392505050565b600082601f83011261048357610482610356565b5b813561049384826020860161042c565b91505092915050565b6000819050919050565b6104af8161049c565b81146104ba57600080fd5b50565b6000813590506104cc816104a6565b92915050565b600080604083850312156104e9576104e861034c565b5b600083013567ffffffffffffffff81111561050757610506610351565b5b6105138582860161046e565b9250506020610524858286016104bd565b9150509250929050565b6105378161049c565b82525050565b6000602082019050610552600083018461052e565b92915050565b600081519050919050565b600082825260208201905092915050565b6000819050602082019050919050565b61058d8161049c565b82525050565b600081519050919050565b600082825260208201905092915050565b60005b838110156105cd5780820151818401526020810190506105b2565b60008484015250505050565b60006105e482610593565b6105ee818561059e565b93506105fe8185602086016105af565b61060781610360565b840191505092915050565b600060608301600083015161062a6000860182610584565b506020830151848203602086015261064282826105d9565b91505060408301516106576040860182610584565b508091505092915050565b600061066e8383610612565b905092915050565b6000602082019050919050565b600061068e82610558565b6106988185610563565b9350836020820285016106aa85610574565b8060005b858110156106e657848403895281516106c78582610662565b94506106d283610676565b925060208a019950506001810190506106ae565b50829750879550505050505092915050565b600060208201905081810360008301526107128184610683565b905092915050565b6000602082840312156107305761072f61034c565b5b600061073e848285016104bd565b91505092915050565b600082825260208201905092915050565b600061076382610593565b61076d8185610747565b935061077d8185602086016105af565b61078681610360565b840191505092915050565b60006060820190506107a6600083018661052e565b81810360208301526107b88185610758565b90506107c7604083018461052e565b949350505050565b7f4e487b7100000000000000000000000000000000000000000000000000000000600052601160045260246000fd5b60006108098261049c565b91506108148361049c565b925082820190508082111561082c5761082b6107cf565b5b92915050565b7f4e487b7100000000000000000000000000000000000000000000000000000000600052602260045260246000fd5b6000600282049050600182168061087957607f821691505b60208210810361088c5761088b610832565b5b50919050565b60008190508160005260206000209050919050565b60006020601f8301049050919050565b60008160020a8302905092915050565b6000600883026108f77fffffffffffffffffffffffffffffffffffffffffffffffffffffffffffffffff826108b7565b61090186836108b7565b95508019841693508086168417925050509392505050565b6000819050919050565b600061093e6109396109348461049c565b610919565b61049c565b9050919050565b6000819050919050565b61095883610923565b61096c61096482610945565b8484546108c7565b825550505050565b600090565b610981610974565b61098c81848461094f565b505050565b5b818110156109b0576109a5600082610979565b600181019050610992565b5050565b601f8211156109f5576109c681610892565b6109cf846108a7565b810160208510156109de578190505b6109f26109ea856108a7565b830182610991565b50505b505050565b60008160020a8304905092915050565b6000610a1b600019846008026109fa565b1980831691505092915050565b6000610a348383610a0a565b9150826002028217905092915050565b610a4d82610593565b67ffffffffffffffff811115610a6657610a65610371565b5b610a708254610861565b610a7b8282856109b4565b600060209050601f831160018114610aae5760008415610a9c578287015190505b610aa68582610a28565b865550610b0e565b601f198416610abc86610892565b60005b82811015610ae457848901518255600182019150602085019450602081019050610abf565b86831015610b015784890151610afd601f891682610a0a565b8355505b6001600288020188555050505b50505050505056fea2646970667358221220acd8ed949ec628a563b73e323e0d17c061dd04233734244f2906f349489efcf864736f6c63430008140033",
  "immutableReferences": {},
  "source": "// SPDX-License-Identifier: GPL-3.0\r\npragma solidity >=0.4.16 <0.9.0;\r\n\r\ncontract StudentListStorage {\r\n    // \r\n    struct Student {\r\n        uint id;\r\n        string name;\r\n        uint age;\r\n    }\r\n\r\n    // ;\r\n    // Student[10] public StudentList\r\n    // Student[] public StudentList\r\n    Student[] public StudentList;\r\n\r\n    function addList (string memory _name, uint _age) public returns(uint) {\r\n        uint index = StudentList.length + 1;\r\n\r\n        StudentList.push(Student(index, _name, _age));\r\n\r\n        return StudentList.length;\r\n    }\r\n\r\n    function getList () public view returns (Student[] memory) {\r\n        return StudentList;\r\n    }\r\n}",
  "sourcePath": "E:\\KerwinLiu\\web3-mb\\kerwinContracts\\contracts\\StudentListStorage.sol",
  "compiler": {
    "name": "solc",
    "version": "0.8.20+commit.a1b79de6.Emscripten.clang"
  },
  "schemaVersion": "3.4.14",
  "updatedAt": "2023-05-26T00:06:31.756Z",
  "devdoc": {
    "kind": "dev",
    "methods": {},
    "version": 1
  },
  "userdoc": {
    "kind": "user",
    "methods": {},
    "version": 1
  }
}